{
	"pay-investors-looping-assignment.sol": {
		"AddressWallets": {
			"abi": [
				{
					"inputs": [],
					"stateMutability": "payable",
					"type": "constructor"
				},
				{
					"inputs": [],
					"name": "checkInvestors",
					"outputs": [
						{
							"internalType": "uint256",
							"name": "",
							"type": "uint256"
						}
					],
					"stateMutability": "view",
					"type": "function"
				},
				{
					"inputs": [],
					"name": "makePayment",
					"outputs": [],
					"stateMutability": "nonpayable",
					"type": "function"
				},
				{
					"inputs": [
						{
							"internalType": "address payable",
							"name": "wallet",
							"type": "address"
						},
						{
							"internalType": "uint256",
							"name": "amount",
							"type": "uint256"
						}
					],
					"name": "payInvestors",
					"outputs": [],
					"stateMutability": "nonpayable",
					"type": "function"
				}
			],
			"devdoc": {
				"kind": "dev",
				"methods": {},
				"version": 1
			},
			"evm": {
				"assembly": "    /* \"pay-investors-looping-assignment.sol\":1764:2621  contract AddressWallets {... */\n  mstore(0x40, 0x80)\n    /* \"pay-investors-looping-assignment.sol\":1878:1888  msg.sender */\n  caller\n    /* \"pay-investors-looping-assignment.sol\":1870:1875  owner */\n  0x00\n  dup1\n    /* \"pay-investors-looping-assignment.sol\":1870:1888  owner = msg.sender */\n  0x0100\n  exp\n  dup2\n  sload\n  dup2\n  0xffffffffffffffffffffffffffffffffffffffff\n  mul\n  not\n  and\n  swap1\n  dup4\n  0xffffffffffffffffffffffffffffffffffffffff\n  and\n  mul\n  or\n  swap1\n  sstore\n  pop\n    /* \"pay-investors-looping-assignment.sol\":1906:1915  msg.value */\n  callvalue\n    /* \"pay-investors-looping-assignment.sol\":1898:1903  funds */\n  0x01\n    /* \"pay-investors-looping-assignment.sol\":1898:1915  funds = msg.value */\n  dup2\n  swap1\n  sstore\n  pop\n    /* \"pay-investors-looping-assignment.sol\":1764:2621  contract AddressWallets {... */\n  dataSize(sub_0)\n  dup1\n  dataOffset(sub_0)\n  0x00\n  codecopy\n  0x00\n  return\nstop\n\nsub_0: assembly {\n        /* \"pay-investors-looping-assignment.sol\":1764:2621  contract AddressWallets {... */\n      mstore(0x40, 0x80)\n      callvalue\n      dup1\n      iszero\n      tag_1\n      jumpi\n      0x00\n      dup1\n      revert\n    tag_1:\n      pop\n      jumpi(tag_2, lt(calldatasize, 0x04))\n      shr(0xe0, calldataload(0x00))\n      dup1\n      0x26997e2c\n      eq\n      tag_3\n      jumpi\n      dup1\n      0x677ff720\n      eq\n      tag_4\n      jumpi\n      dup1\n      0xd8d79700\n      eq\n      tag_5\n      jumpi\n    tag_2:\n      0x00\n      dup1\n      revert\n        /* \"pay-investors-looping-assignment.sol\":2520:2615  function checkInvestors() public view returns (uint) {... */\n    tag_3:\n      tag_6\n      tag_7\n      jump\t// in\n    tag_6:\n      mload(0x40)\n      dup1\n      dup3\n      dup2\n      mstore\n      0x20\n      add\n      swap2\n      pop\n      pop\n      mload(0x40)\n      dup1\n      swap2\n      sub\n      swap1\n      return\n        /* \"pay-investors-looping-assignment.sol\":2097:2244  function payInvestors(address payable wallet, uint amount) public {... */\n    tag_4:\n      tag_8\n      0x04\n      dup1\n      calldatasize\n      sub\n      0x40\n      dup2\n      lt\n      iszero\n      tag_9\n      jumpi\n      0x00\n      dup1\n      revert\n    tag_9:\n      dup2\n      add\n      swap1\n      dup1\n      dup1\n      calldataload\n      0xffffffffffffffffffffffffffffffffffffffff\n      and\n      swap1\n      0x20\n      add\n      swap1\n      swap3\n      swap2\n      swap1\n      dup1\n      calldataload\n      swap1\n      0x20\n      add\n      swap1\n      swap3\n      swap2\n      swap1\n      pop\n      pop\n      pop\n      tag_10\n      jump\t// in\n    tag_8:\n      stop\n        /* \"pay-investors-looping-assignment.sol\":2444:2509  function makePayment() public onlyOwner {... */\n    tag_5:\n      tag_11\n      tag_12\n      jump\t// in\n    tag_11:\n      stop\n        /* \"pay-investors-looping-assignment.sol\":2520:2615  function checkInvestors() public view returns (uint) {... */\n    tag_7:\n        /* \"pay-investors-looping-assignment.sol\":2567:2571  uint */\n      0x00\n        /* \"pay-investors-looping-assignment.sol\":2586:2601  investorWallets */\n      0x02\n        /* \"pay-investors-looping-assignment.sol\":2586:2608  investorWallets.length */\n      dup1\n      sload\n      swap1\n      pop\n        /* \"pay-investors-looping-assignment.sol\":2579:2608  return investorWallets.length */\n      swap1\n      pop\n        /* \"pay-investors-looping-assignment.sol\":2520:2615  function checkInvestors() public view returns (uint) {... */\n      swap1\n      jump\t// out\n        /* \"pay-investors-looping-assignment.sol\":2097:2244  function payInvestors(address payable wallet, uint amount) public {... */\n    tag_10:\n        /* \"pay-investors-looping-assignment.sol\":2173:2188  investorWallets */\n      0x02\n        /* \"pay-investors-looping-assignment.sol\":2194:2200  wallet */\n      dup3\n        /* \"pay-investors-looping-assignment.sol\":2173:2201  investorWallets.push(wallet) */\n      swap1\n      dup1\n      0x01\n      dup2\n      sload\n      add\n      dup1\n      dup3\n      sstore\n      dup1\n      swap2\n      pop\n      pop\n      0x01\n      swap1\n      sub\n      swap1\n      0x00\n      mstore\n      keccak256(0x00, 0x20)\n      add\n      0x00\n      swap1\n      swap2\n      swap1\n      swap2\n      swap1\n      swap2\n      0x0100\n      exp\n      dup2\n      sload\n      dup2\n      0xffffffffffffffffffffffffffffffffffffffff\n      mul\n      not\n      and\n      swap1\n      dup4\n      0xffffffffffffffffffffffffffffffffffffffff\n      and\n      mul\n      or\n      swap1\n      sstore\n      pop\n        /* \"pay-investors-looping-assignment.sol\":2231:2237  amount */\n      dup1\n        /* \"pay-investors-looping-assignment.sol\":2211:2220  investors */\n      0x03\n        /* \"pay-investors-looping-assignment.sol\":2211:2228  investors[wallet] */\n      0x00\n        /* \"pay-investors-looping-assignment.sol\":2221:2227  wallet */\n      dup5\n        /* \"pay-investors-looping-assignment.sol\":2211:2228  investors[wallet] */\n      0xffffffffffffffffffffffffffffffffffffffff\n      and\n      0xffffffffffffffffffffffffffffffffffffffff\n      and\n      dup2\n      mstore\n      0x20\n      add\n      swap1\n      dup2\n      mstore\n      0x20\n      add\n      0x00\n      keccak256\n        /* \"pay-investors-looping-assignment.sol\":2211:2237  investors[wallet] = amount */\n      dup2\n      swap1\n      sstore\n      pop\n        /* \"pay-investors-looping-assignment.sol\":2097:2244  function payInvestors(address payable wallet, uint amount) public {... */\n      pop\n      pop\n      jump\t// out\n        /* \"pay-investors-looping-assignment.sol\":2444:2509  function makePayment() public onlyOwner {... */\n    tag_12:\n        /* \"pay-investors-looping-assignment.sol\":1976:1986  msg.sender */\n      caller\n        /* \"pay-investors-looping-assignment.sol\":1967:1986  owner == msg.sender */\n      0xffffffffffffffffffffffffffffffffffffffff\n      and\n        /* \"pay-investors-looping-assignment.sol\":1967:1972  owner */\n      0x00\n      dup1\n      sload\n      swap1\n      0x0100\n      exp\n      swap1\n      div\n      0xffffffffffffffffffffffffffffffffffffffff\n      and\n        /* \"pay-investors-looping-assignment.sol\":1967:1986  owner == msg.sender */\n      0xffffffffffffffffffffffffffffffffffffffff\n      and\n      eq\n        /* \"pay-investors-looping-assignment.sol\":1959:1987  require(owner == msg.sender) */\n      tag_17\n      jumpi\n      0x00\n      dup1\n      revert\n    tag_17:\n        /* \"pay-investors-looping-assignment.sol\":2494:2502  payout() */\n      tag_19\n        /* \"pay-investors-looping-assignment.sol\":2494:2500  payout */\n      tag_20\n        /* \"pay-investors-looping-assignment.sol\":2494:2502  payout() */\n      jump\t// in\n    tag_19:\n        /* \"pay-investors-looping-assignment.sol\":2444:2509  function makePayment() public onlyOwner {... */\n      jump\t// out\n        /* \"pay-investors-looping-assignment.sol\":2254:2438  function payout() private {... */\n    tag_20:\n        /* \"pay-investors-looping-assignment.sol\":2294:2300  uint i */\n      0x00\n        /* \"pay-investors-looping-assignment.sol\":2290:2423  for(uint i=0; i<investorWallets.length; i++) {... */\n    tag_22:\n        /* \"pay-investors-looping-assignment.sol\":2306:2321  investorWallets */\n      0x02\n        /* \"pay-investors-looping-assignment.sol\":2306:2328  investorWallets.length */\n      dup1\n      sload\n      swap1\n      pop\n        /* \"pay-investors-looping-assignment.sol\":2304:2305  i */\n      dup2\n        /* \"pay-investors-looping-assignment.sol\":2304:2328  i<investorWallets.length */\n      lt\n        /* \"pay-investors-looping-assignment.sol\":2290:2423  for(uint i=0; i<investorWallets.length; i++) {... */\n      iszero\n      tag_23\n      jumpi\n        /* \"pay-investors-looping-assignment.sol\":2349:2364  investorWallets */\n      0x02\n        /* \"pay-investors-looping-assignment.sol\":2365:2366  i */\n      dup2\n        /* \"pay-investors-looping-assignment.sol\":2349:2367  investorWallets[i] */\n      dup2\n      sload\n      dup2\n      lt\n      tag_25\n      jumpi\n      invalid\n    tag_25:\n      swap1\n      0x00\n      mstore\n      keccak256(0x00, 0x20)\n      add\n      0x00\n      swap1\n      sload\n      swap1\n      0x0100\n      exp\n      swap1\n      div\n      0xffffffffffffffffffffffffffffffffffffffff\n      and\n        /* \"pay-investors-looping-assignment.sol\":2349:2376  investorWallets[i].transfer */\n      0xffffffffffffffffffffffffffffffffffffffff\n      and\n        /* \"pay-investors-looping-assignment.sol\":2349:2407  investorWallets[i].transfer(investors[investorWallets[i]]) */\n      0x08fc\n        /* \"pay-investors-looping-assignment.sol\":2377:2386  investors */\n      0x03\n        /* \"pay-investors-looping-assignment.sol\":2377:2406  investors[investorWallets[i]] */\n      0x00\n        /* \"pay-investors-looping-assignment.sol\":2387:2402  investorWallets */\n      0x02\n        /* \"pay-investors-looping-assignment.sol\":2403:2404  i */\n      dup6\n        /* \"pay-investors-looping-assignment.sol\":2387:2405  investorWallets[i] */\n      dup2\n      sload\n      dup2\n      lt\n      tag_27\n      jumpi\n      invalid\n    tag_27:\n      swap1\n      0x00\n      mstore\n      keccak256(0x00, 0x20)\n      add\n      0x00\n      swap1\n      sload\n      swap1\n      0x0100\n      exp\n      swap1\n      div\n      0xffffffffffffffffffffffffffffffffffffffff\n      and\n        /* \"pay-investors-looping-assignment.sol\":2377:2406  investors[investorWallets[i]] */\n      0xffffffffffffffffffffffffffffffffffffffff\n      and\n      0xffffffffffffffffffffffffffffffffffffffff\n      and\n      dup2\n      mstore\n      0x20\n      add\n      swap1\n      dup2\n      mstore\n      0x20\n      add\n      0x00\n      keccak256\n      sload\n        /* \"pay-investors-looping-assignment.sol\":2349:2407  investorWallets[i].transfer(investors[investorWallets[i]]) */\n      swap1\n      dup2\n      iszero\n      mul\n      swap1\n      mload(0x40)\n      0x00\n      mload(0x40)\n      dup1\n      dup4\n      sub\n      dup2\n      dup6\n      dup9\n      dup9\n      call\n      swap4\n      pop\n      pop\n      pop\n      pop\n      iszero\n      dup1\n      iszero\n      tag_30\n      jumpi\n      returndatasize\n      0x00\n      dup1\n      returndatacopy\n      revert(0x00, returndatasize)\n    tag_30:\n      pop\n        /* \"pay-investors-looping-assignment.sol\":2330:2333  i++ */\n      dup1\n      dup1\n      0x01\n      add\n      swap2\n      pop\n      pop\n        /* \"pay-investors-looping-assignment.sol\":2290:2423  for(uint i=0; i<investorWallets.length; i++) {... */\n      jump(tag_22)\n    tag_23:\n      pop\n        /* \"pay-investors-looping-assignment.sol\":2254:2438  function payout() private {... */\n      jump\t// out\n\n    auxdata: 0xa264697066735822122035961a4978864d2fddcbfa2dba2134ee87d091e778eda53daa5cdd24a8dbd23164736f6c63430007060033\n}\n",
				"bytecode": {
					"linkReferences": {},
					"object": "6080604052336000806101000a81548173ffffffffffffffffffffffffffffffffffffffff021916908373ffffffffffffffffffffffffffffffffffffffff160217905550346001819055506103208061005a6000396000f3fe608060405234801561001057600080fd5b50600436106100415760003560e01c806326997e2c14610046578063677ff72014610064578063d8d79700146100b2575b600080fd5b61004e6100bc565b6040518082815260200191505060405180910390f35b6100b06004803603604081101561007a57600080fd5b81019080803573ffffffffffffffffffffffffffffffffffffffff169060200190929190803590602001909291905050506100c9565b005b6100ba610174565b005b6000600280549050905090565b6002829080600181540180825580915050600190039060005260206000200160009091909190916101000a81548173ffffffffffffffffffffffffffffffffffffffff021916908373ffffffffffffffffffffffffffffffffffffffff16021790555080600360008473ffffffffffffffffffffffffffffffffffffffff1673ffffffffffffffffffffffffffffffffffffffff168152602001908152602001600020819055505050565b3373ffffffffffffffffffffffffffffffffffffffff1660008054906101000a900473ffffffffffffffffffffffffffffffffffffffff1673ffffffffffffffffffffffffffffffffffffffff16146101cc57600080fd5b6101d46101d6565b565b60005b6002805490508110156102e757600281815481106101f357fe5b9060005260206000200160009054906101000a900473ffffffffffffffffffffffffffffffffffffffff1673ffffffffffffffffffffffffffffffffffffffff166108fc600360006002858154811061024857fe5b9060005260206000200160009054906101000a900473ffffffffffffffffffffffffffffffffffffffff1673ffffffffffffffffffffffffffffffffffffffff1673ffffffffffffffffffffffffffffffffffffffff168152602001908152602001600020549081150290604051600060405180830381858888f193505050501580156102d9573d6000803e3d6000fd5b5080806001019150506101d9565b5056fea264697066735822122035961a4978864d2fddcbfa2dba2134ee87d091e778eda53daa5cdd24a8dbd23164736f6c63430007060033",
					"opcodes": "PUSH1 0x80 PUSH1 0x40 MSTORE CALLER PUSH1 0x0 DUP1 PUSH2 0x100 EXP DUP2 SLOAD DUP2 PUSH20 0xFFFFFFFFFFFFFFFFFFFFFFFFFFFFFFFFFFFFFFFF MUL NOT AND SWAP1 DUP4 PUSH20 0xFFFFFFFFFFFFFFFFFFFFFFFFFFFFFFFFFFFFFFFF AND MUL OR SWAP1 SSTORE POP CALLVALUE PUSH1 0x1 DUP2 SWAP1 SSTORE POP PUSH2 0x320 DUP1 PUSH2 0x5A PUSH1 0x0 CODECOPY PUSH1 0x0 RETURN INVALID PUSH1 0x80 PUSH1 0x40 MSTORE CALLVALUE DUP1 ISZERO PUSH2 0x10 JUMPI PUSH1 0x0 DUP1 REVERT JUMPDEST POP PUSH1 0x4 CALLDATASIZE LT PUSH2 0x41 JUMPI PUSH1 0x0 CALLDATALOAD PUSH1 0xE0 SHR DUP1 PUSH4 0x26997E2C EQ PUSH2 0x46 JUMPI DUP1 PUSH4 0x677FF720 EQ PUSH2 0x64 JUMPI DUP1 PUSH4 0xD8D79700 EQ PUSH2 0xB2 JUMPI JUMPDEST PUSH1 0x0 DUP1 REVERT JUMPDEST PUSH2 0x4E PUSH2 0xBC JUMP JUMPDEST PUSH1 0x40 MLOAD DUP1 DUP3 DUP2 MSTORE PUSH1 0x20 ADD SWAP2 POP POP PUSH1 0x40 MLOAD DUP1 SWAP2 SUB SWAP1 RETURN JUMPDEST PUSH2 0xB0 PUSH1 0x4 DUP1 CALLDATASIZE SUB PUSH1 0x40 DUP2 LT ISZERO PUSH2 0x7A JUMPI PUSH1 0x0 DUP1 REVERT JUMPDEST DUP2 ADD SWAP1 DUP1 DUP1 CALLDATALOAD PUSH20 0xFFFFFFFFFFFFFFFFFFFFFFFFFFFFFFFFFFFFFFFF AND SWAP1 PUSH1 0x20 ADD SWAP1 SWAP3 SWAP2 SWAP1 DUP1 CALLDATALOAD SWAP1 PUSH1 0x20 ADD SWAP1 SWAP3 SWAP2 SWAP1 POP POP POP PUSH2 0xC9 JUMP JUMPDEST STOP JUMPDEST PUSH2 0xBA PUSH2 0x174 JUMP JUMPDEST STOP JUMPDEST PUSH1 0x0 PUSH1 0x2 DUP1 SLOAD SWAP1 POP SWAP1 POP SWAP1 JUMP JUMPDEST PUSH1 0x2 DUP3 SWAP1 DUP1 PUSH1 0x1 DUP2 SLOAD ADD DUP1 DUP3 SSTORE DUP1 SWAP2 POP POP PUSH1 0x1 SWAP1 SUB SWAP1 PUSH1 0x0 MSTORE PUSH1 0x20 PUSH1 0x0 KECCAK256 ADD PUSH1 0x0 SWAP1 SWAP2 SWAP1 SWAP2 SWAP1 SWAP2 PUSH2 0x100 EXP DUP2 SLOAD DUP2 PUSH20 0xFFFFFFFFFFFFFFFFFFFFFFFFFFFFFFFFFFFFFFFF MUL NOT AND SWAP1 DUP4 PUSH20 0xFFFFFFFFFFFFFFFFFFFFFFFFFFFFFFFFFFFFFFFF AND MUL OR SWAP1 SSTORE POP DUP1 PUSH1 0x3 PUSH1 0x0 DUP5 PUSH20 0xFFFFFFFFFFFFFFFFFFFFFFFFFFFFFFFFFFFFFFFF AND PUSH20 0xFFFFFFFFFFFFFFFFFFFFFFFFFFFFFFFFFFFFFFFF AND DUP2 MSTORE PUSH1 0x20 ADD SWAP1 DUP2 MSTORE PUSH1 0x20 ADD PUSH1 0x0 KECCAK256 DUP2 SWAP1 SSTORE POP POP POP JUMP JUMPDEST CALLER PUSH20 0xFFFFFFFFFFFFFFFFFFFFFFFFFFFFFFFFFFFFFFFF AND PUSH1 0x0 DUP1 SLOAD SWAP1 PUSH2 0x100 EXP SWAP1 DIV PUSH20 0xFFFFFFFFFFFFFFFFFFFFFFFFFFFFFFFFFFFFFFFF AND PUSH20 0xFFFFFFFFFFFFFFFFFFFFFFFFFFFFFFFFFFFFFFFF AND EQ PUSH2 0x1CC JUMPI PUSH1 0x0 DUP1 REVERT JUMPDEST PUSH2 0x1D4 PUSH2 0x1D6 JUMP JUMPDEST JUMP JUMPDEST PUSH1 0x0 JUMPDEST PUSH1 0x2 DUP1 SLOAD SWAP1 POP DUP2 LT ISZERO PUSH2 0x2E7 JUMPI PUSH1 0x2 DUP2 DUP2 SLOAD DUP2 LT PUSH2 0x1F3 JUMPI INVALID JUMPDEST SWAP1 PUSH1 0x0 MSTORE PUSH1 0x20 PUSH1 0x0 KECCAK256 ADD PUSH1 0x0 SWAP1 SLOAD SWAP1 PUSH2 0x100 EXP SWAP1 DIV PUSH20 0xFFFFFFFFFFFFFFFFFFFFFFFFFFFFFFFFFFFFFFFF AND PUSH20 0xFFFFFFFFFFFFFFFFFFFFFFFFFFFFFFFFFFFFFFFF AND PUSH2 0x8FC PUSH1 0x3 PUSH1 0x0 PUSH1 0x2 DUP6 DUP2 SLOAD DUP2 LT PUSH2 0x248 JUMPI INVALID JUMPDEST SWAP1 PUSH1 0x0 MSTORE PUSH1 0x20 PUSH1 0x0 KECCAK256 ADD PUSH1 0x0 SWAP1 SLOAD SWAP1 PUSH2 0x100 EXP SWAP1 DIV PUSH20 0xFFFFFFFFFFFFFFFFFFFFFFFFFFFFFFFFFFFFFFFF AND PUSH20 0xFFFFFFFFFFFFFFFFFFFFFFFFFFFFFFFFFFFFFFFF AND PUSH20 0xFFFFFFFFFFFFFFFFFFFFFFFFFFFFFFFFFFFFFFFF AND DUP2 MSTORE PUSH1 0x20 ADD SWAP1 DUP2 MSTORE PUSH1 0x20 ADD PUSH1 0x0 KECCAK256 SLOAD SWAP1 DUP2 ISZERO MUL SWAP1 PUSH1 0x40 MLOAD PUSH1 0x0 PUSH1 0x40 MLOAD DUP1 DUP4 SUB DUP2 DUP6 DUP9 DUP9 CALL SWAP4 POP POP POP POP ISZERO DUP1 ISZERO PUSH2 0x2D9 JUMPI RETURNDATASIZE PUSH1 0x0 DUP1 RETURNDATACOPY RETURNDATASIZE PUSH1 0x0 REVERT JUMPDEST POP DUP1 DUP1 PUSH1 0x1 ADD SWAP2 POP POP PUSH2 0x1D9 JUMP JUMPDEST POP JUMP INVALID LOG2 PUSH5 0x6970667358 0x22 SLT KECCAK256 CALLDATALOAD SWAP7 BYTE 0x49 PUSH25 0x864D2FDDCBFA2DBA2134EE87D091E778EDA53DAA5CDD24A8DB 0xD2 BALANCE PUSH5 0x736F6C6343 STOP SMOD MOD STOP CALLER "
				},
				"gasEstimates": {
					"creation": {
						"codeDepositCost": "160000",
						"executionCost": "41057",
						"totalCost": "201057"
					},
					"external": {
						"checkInvestors()": "999",
						"makePayment()": "infinite",
						"payInvestors(address,uint256)": "62146"
					},
					"internal": {
						"payout()": "infinite"
					}
				},
				"methodIdentifiers": {
					"checkInvestors()": "26997e2c",
					"makePayment()": "d8d79700",
					"payInvestors(address,uint256)": "677ff720"
				}
			},
			"storageLayout": {
				"storage": [
					{
						"astId": 3,
						"contract": "pay-investors-looping-assignment.sol:AddressWallets",
						"label": "owner",
						"offset": 0,
						"slot": "0",
						"type": "t_address"
					},
					{
						"astId": 5,
						"contract": "pay-investors-looping-assignment.sol:AddressWallets",
						"label": "funds",
						"offset": 0,
						"slot": "1",
						"type": "t_uint256"
					},
					{
						"astId": 33,
						"contract": "pay-investors-looping-assignment.sol:AddressWallets",
						"label": "investorWallets",
						"offset": 0,
						"slot": "2",
						"type": "t_array(t_address_payable)dyn_storage"
					},
					{
						"astId": 37,
						"contract": "pay-investors-looping-assignment.sol:AddressWallets",
						"label": "investors",
						"offset": 0,
						"slot": "3",
						"type": "t_mapping(t_address,t_uint256)"
					}
				],
				"types": {
					"t_address": {
						"encoding": "inplace",
						"label": "address",
						"numberOfBytes": "20"
					},
					"t_address_payable": {
						"encoding": "inplace",
						"label": "address payable",
						"numberOfBytes": "20"
					},
					"t_array(t_address_payable)dyn_storage": {
						"base": "t_address_payable",
						"encoding": "dynamic_array",
						"label": "address payable[]",
						"numberOfBytes": "32"
					},
					"t_mapping(t_address,t_uint256)": {
						"encoding": "mapping",
						"key": "t_address",
						"label": "mapping(address => uint256)",
						"numberOfBytes": "32",
						"value": "t_uint256"
					},
					"t_uint256": {
						"encoding": "inplace",
						"label": "uint256",
						"numberOfBytes": "32"
					}
				}
			},
			"userdoc": {
				"kind": "user",
				"methods": {},
				"version": 1
			}
		}
	}
}