{
	"pay-investors-looping-assignment.sol": {
		"AddressWallets": {
			"abi": [
				{
					"inputs": [],
					"stateMutability": "payable",
					"type": "constructor"
				},
				{
					"inputs": [],
					"name": "checkInvestors",
					"outputs": [
						{
							"internalType": "uint256",
							"name": "",
							"type": "uint256"
						}
					],
					"stateMutability": "view",
					"type": "function"
				},
				{
					"inputs": [],
					"name": "makePayment",
					"outputs": [],
					"stateMutability": "nonpayable",
					"type": "function"
				},
				{
					"inputs": [
						{
							"internalType": "address payable",
							"name": "wallet",
							"type": "address"
						},
						{
							"internalType": "uint256",
							"name": "amount",
							"type": "uint256"
						}
					],
					"name": "payInvestors",
					"outputs": [],
					"stateMutability": "nonpayable",
					"type": "function"
				},
				{
					"inputs": [
						{
							"internalType": "uint256",
							"name": "amount",
							"type": "uint256"
						}
					],
					"name": "payout",
					"outputs": [
						{
							"internalType": "uint256",
							"name": "",
							"type": "uint256"
						}
					],
					"stateMutability": "nonpayable",
					"type": "function"
				}
			],
			"devdoc": {
				"kind": "dev",
				"methods": {},
				"version": 1
			},
			"evm": {
				"assembly": "    /* \"pay-investors-looping-assignment.sol\":1764:2650  contract AddressWallets {... */\n  mstore(0x40, 0x80)\n    /* \"pay-investors-looping-assignment.sol\":1878:1888  msg.sender */\n  caller\n    /* \"pay-investors-looping-assignment.sol\":1870:1875  owner */\n  0x00\n  dup1\n    /* \"pay-investors-looping-assignment.sol\":1870:1888  owner = msg.sender */\n  0x0100\n  exp\n  dup2\n  sload\n  dup2\n  0xffffffffffffffffffffffffffffffffffffffff\n  mul\n  not\n  and\n  swap1\n  dup4\n  0xffffffffffffffffffffffffffffffffffffffff\n  and\n  mul\n  or\n  swap1\n  sstore\n  pop\n    /* \"pay-investors-looping-assignment.sol\":1906:1915  msg.value */\n  callvalue\n    /* \"pay-investors-looping-assignment.sol\":1898:1903  funds */\n  0x01\n    /* \"pay-investors-looping-assignment.sol\":1898:1915  funds = msg.value */\n  dup2\n  swap1\n  sstore\n  pop\n    /* \"pay-investors-looping-assignment.sol\":1764:2650  contract AddressWallets {... */\n  dataSize(sub_0)\n  dup1\n  dataOffset(sub_0)\n  0x00\n  codecopy\n  0x00\n  return\nstop\n\nsub_0: assembly {\n        /* \"pay-investors-looping-assignment.sol\":1764:2650  contract AddressWallets {... */\n      mstore(0x40, 0x80)\n      callvalue\n      dup1\n      iszero\n      tag_1\n      jumpi\n      0x00\n      dup1\n      revert\n    tag_1:\n      pop\n      jumpi(tag_2, lt(calldatasize, 0x04))\n      shr(0xe0, calldataload(0x00))\n      dup1\n      0x26997e2c\n      eq\n      tag_3\n      jumpi\n      dup1\n      0x677ff720\n      eq\n      tag_4\n      jumpi\n      dup1\n      0xd8d79700\n      eq\n      tag_5\n      jumpi\n      dup1\n      0xe1152343\n      eq\n      tag_6\n      jumpi\n    tag_2:\n      0x00\n      dup1\n      revert\n        /* \"pay-investors-looping-assignment.sol\":2549:2644  function checkInvestors() public view returns (uint) {... */\n    tag_3:\n      tag_7\n      tag_8\n      jump\t// in\n    tag_7:\n      mload(0x40)\n      dup1\n      dup3\n      dup2\n      mstore\n      0x20\n      add\n      swap2\n      pop\n      pop\n      mload(0x40)\n      dup1\n      swap2\n      sub\n      swap1\n      return\n        /* \"pay-investors-looping-assignment.sol\":2097:2244  function payInvestors(address payable wallet, uint amount) public {... */\n    tag_4:\n      tag_9\n      0x04\n      dup1\n      calldatasize\n      sub\n      0x40\n      dup2\n      lt\n      iszero\n      tag_10\n      jumpi\n      0x00\n      dup1\n      revert\n    tag_10:\n      dup2\n      add\n      swap1\n      dup1\n      dup1\n      calldataload\n      0xffffffffffffffffffffffffffffffffffffffff\n      and\n      swap1\n      0x20\n      add\n      swap1\n      swap3\n      swap2\n      swap1\n      dup1\n      calldataload\n      swap1\n      0x20\n      add\n      swap1\n      swap3\n      swap2\n      swap1\n      pop\n      pop\n      pop\n      tag_11\n      jump\t// in\n    tag_9:\n      stop\n        /* \"pay-investors-looping-assignment.sol\":2490:2538  function makePayment() public onlyOwner {... */\n    tag_5:\n      tag_12\n      tag_13\n      jump\t// in\n    tag_12:\n      stop\n        /* \"pay-investors-looping-assignment.sol\":2254:2484  function payout(uint amount) public returns(uint) {... */\n    tag_6:\n      tag_14\n      0x04\n      dup1\n      calldatasize\n      sub\n      0x20\n      dup2\n      lt\n      iszero\n      tag_15\n      jumpi\n      0x00\n      dup1\n      revert\n    tag_15:\n      dup2\n      add\n      swap1\n      dup1\n      dup1\n      calldataload\n      swap1\n      0x20\n      add\n      swap1\n      swap3\n      swap2\n      swap1\n      pop\n      pop\n      pop\n      tag_16\n      jump\t// in\n    tag_14:\n      mload(0x40)\n      dup1\n      dup3\n      dup2\n      mstore\n      0x20\n      add\n      swap2\n      pop\n      pop\n      mload(0x40)\n      dup1\n      swap2\n      sub\n      swap1\n      return\n        /* \"pay-investors-looping-assignment.sol\":2549:2644  function checkInvestors() public view returns (uint) {... */\n    tag_8:\n        /* \"pay-investors-looping-assignment.sol\":2596:2600  uint */\n      0x00\n        /* \"pay-investors-looping-assignment.sol\":2615:2630  investorWallets */\n      0x02\n        /* \"pay-investors-looping-assignment.sol\":2615:2637  investorWallets.length */\n      dup1\n      sload\n      swap1\n      pop\n        /* \"pay-investors-looping-assignment.sol\":2608:2637  return investorWallets.length */\n      swap1\n      pop\n        /* \"pay-investors-looping-assignment.sol\":2549:2644  function checkInvestors() public view returns (uint) {... */\n      swap1\n      jump\t// out\n        /* \"pay-investors-looping-assignment.sol\":2097:2244  function payInvestors(address payable wallet, uint amount) public {... */\n    tag_11:\n        /* \"pay-investors-looping-assignment.sol\":2173:2188  investorWallets */\n      0x02\n        /* \"pay-investors-looping-assignment.sol\":2194:2200  wallet */\n      dup3\n        /* \"pay-investors-looping-assignment.sol\":2173:2201  investorWallets.push(wallet) */\n      swap1\n      dup1\n      0x01\n      dup2\n      sload\n      add\n      dup1\n      dup3\n      sstore\n      dup1\n      swap2\n      pop\n      pop\n      0x01\n      swap1\n      sub\n      swap1\n      0x00\n      mstore\n      keccak256(0x00, 0x20)\n      add\n      0x00\n      swap1\n      swap2\n      swap1\n      swap2\n      swap1\n      swap2\n      0x0100\n      exp\n      dup2\n      sload\n      dup2\n      0xffffffffffffffffffffffffffffffffffffffff\n      mul\n      not\n      and\n      swap1\n      dup4\n      0xffffffffffffffffffffffffffffffffffffffff\n      and\n      mul\n      or\n      swap1\n      sstore\n      pop\n        /* \"pay-investors-looping-assignment.sol\":2231:2237  amount */\n      dup1\n        /* \"pay-investors-looping-assignment.sol\":2211:2220  investors */\n      0x03\n        /* \"pay-investors-looping-assignment.sol\":2211:2228  investors[wallet] */\n      0x00\n        /* \"pay-investors-looping-assignment.sol\":2221:2227  wallet */\n      dup5\n        /* \"pay-investors-looping-assignment.sol\":2211:2228  investors[wallet] */\n      0xffffffffffffffffffffffffffffffffffffffff\n      and\n      0xffffffffffffffffffffffffffffffffffffffff\n      and\n      dup2\n      mstore\n      0x20\n      add\n      swap1\n      dup2\n      mstore\n      0x20\n      add\n      0x00\n      keccak256\n        /* \"pay-investors-looping-assignment.sol\":2211:2237  investors[wallet] = amount */\n      dup2\n      swap1\n      sstore\n      pop\n        /* \"pay-investors-looping-assignment.sol\":2097:2244  function payInvestors(address payable wallet, uint amount) public {... */\n      pop\n      pop\n      jump\t// out\n        /* \"pay-investors-looping-assignment.sol\":2490:2538  function makePayment() public onlyOwner {... */\n    tag_13:\n        /* \"pay-investors-looping-assignment.sol\":1976:1986  msg.sender */\n      caller\n        /* \"pay-investors-looping-assignment.sol\":1967:1986  owner == msg.sender */\n      0xffffffffffffffffffffffffffffffffffffffff\n      and\n        /* \"pay-investors-looping-assignment.sol\":1967:1972  owner */\n      0x00\n      dup1\n      sload\n      swap1\n      0x0100\n      exp\n      swap1\n      div\n      0xffffffffffffffffffffffffffffffffffffffff\n      and\n        /* \"pay-investors-looping-assignment.sol\":1967:1986  owner == msg.sender */\n      0xffffffffffffffffffffffffffffffffffffffff\n      and\n      eq\n        /* \"pay-investors-looping-assignment.sol\":1959:1987  require(owner == msg.sender) */\n      tag_21\n      jumpi\n      0x00\n      dup1\n      revert\n    tag_21:\n        /* \"pay-investors-looping-assignment.sol\":2490:2538  function makePayment() public onlyOwner {... */\n      jump\t// out\n        /* \"pay-investors-looping-assignment.sol\":2254:2484  function payout(uint amount) public returns(uint) {... */\n    tag_16:\n        /* \"pay-investors-looping-assignment.sol\":2298:2302  uint */\n      0x00\n        /* \"pay-investors-looping-assignment.sol\":2318:2324  uint i */\n      dup1\n        /* \"pay-investors-looping-assignment.sol\":2325:2326  0 */\n      0x00\n        /* \"pay-investors-looping-assignment.sol\":2318:2326  uint i=0 */\n      swap1\n      pop\n        /* \"pay-investors-looping-assignment.sol\":2330:2345  investorWallets */\n      0x02\n        /* \"pay-investors-looping-assignment.sol\":2330:2352  investorWallets.length */\n      dup1\n      sload\n      swap1\n      pop\n        /* \"pay-investors-looping-assignment.sol\":2328:2329  i */\n      dup2\n        /* \"pay-investors-looping-assignment.sol\":2328:2352  i<investorWallets.length */\n      lt\n        /* \"pay-investors-looping-assignment.sol\":2314:2469  for(uint i=0; i<investorWallets.length; i++) {... */\n      iszero\n      tag_25\n      jumpi\n        /* \"pay-investors-looping-assignment.sol\":2373:2388  investorWallets */\n      0x02\n        /* \"pay-investors-looping-assignment.sol\":2389:2390  i */\n      dup2\n        /* \"pay-investors-looping-assignment.sol\":2373:2391  investorWallets[i] */\n      dup2\n      sload\n      dup2\n      lt\n      tag_27\n      jumpi\n      invalid\n    tag_27:\n      swap1\n      0x00\n      mstore\n      keccak256(0x00, 0x20)\n      add\n      0x00\n      swap1\n      sload\n      swap1\n      0x0100\n      exp\n      swap1\n      div\n      0xffffffffffffffffffffffffffffffffffffffff\n      and\n        /* \"pay-investors-looping-assignment.sol\":2373:2400  investorWallets[i].transfer */\n      0xffffffffffffffffffffffffffffffffffffffff\n      and\n        /* \"pay-investors-looping-assignment.sol\":2373:2431  investorWallets[i].transfer(investors[investorWallets[i]]) */\n      0x08fc\n        /* \"pay-investors-looping-assignment.sol\":2401:2410  investors */\n      0x03\n        /* \"pay-investors-looping-assignment.sol\":2401:2430  investors[investorWallets[i]] */\n      0x00\n        /* \"pay-investors-looping-assignment.sol\":2411:2426  investorWallets */\n      0x02\n        /* \"pay-investors-looping-assignment.sol\":2427:2428  i */\n      dup6\n        /* \"pay-investors-looping-assignment.sol\":2411:2429  investorWallets[i] */\n      dup2\n      sload\n      dup2\n      lt\n      tag_29\n      jumpi\n      invalid\n    tag_29:\n      swap1\n      0x00\n      mstore\n      keccak256(0x00, 0x20)\n      add\n      0x00\n      swap1\n      sload\n      swap1\n      0x0100\n      exp\n      swap1\n      div\n      0xffffffffffffffffffffffffffffffffffffffff\n      and\n        /* \"pay-investors-looping-assignment.sol\":2401:2430  investors[investorWallets[i]] */\n      0xffffffffffffffffffffffffffffffffffffffff\n      and\n      0xffffffffffffffffffffffffffffffffffffffff\n      and\n      dup2\n      mstore\n      0x20\n      add\n      swap1\n      dup2\n      mstore\n      0x20\n      add\n      0x00\n      keccak256\n      sload\n        /* \"pay-investors-looping-assignment.sol\":2373:2431  investorWallets[i].transfer(investors[investorWallets[i]]) */\n      swap1\n      dup2\n      iszero\n      mul\n      swap1\n      mload(0x40)\n      0x00\n      mload(0x40)\n      dup1\n      dup4\n      sub\n      dup2\n      dup6\n      dup9\n      dup9\n      call\n      swap4\n      pop\n      pop\n      pop\n      pop\n      iszero\n      dup1\n      iszero\n      tag_32\n      jumpi\n      returndatasize\n      0x00\n      dup1\n      returndatacopy\n      revert(0x00, returndatasize)\n    tag_32:\n      pop\n        /* \"pay-investors-looping-assignment.sol\":2452:2458  amount */\n      dup3\n        /* \"pay-investors-looping-assignment.sol\":2445:2458  return amount */\n      swap2\n      pop\n      pop\n      jump(tag_23)\n        /* \"pay-investors-looping-assignment.sol\":2314:2469  for(uint i=0; i<investorWallets.length; i++) {... */\n    tag_25:\n      pop\n        /* \"pay-investors-looping-assignment.sol\":2254:2484  function payout(uint amount) public returns(uint) {... */\n    tag_23:\n      swap2\n      swap1\n      pop\n      jump\t// out\n\n    auxdata: 0xa26469706673582212202a0be074aa07e8588bc3945de985fe951236317a70a43e9befff2996ecbdc24064736f6c63430007060033\n}\n",
				"bytecode": {
					"linkReferences": {},
					"object": "6080604052336000806101000a81548173ffffffffffffffffffffffffffffffffffffffff021916908373ffffffffffffffffffffffffffffffffffffffff160217905550346001819055506103698061005a6000396000f3fe608060405234801561001057600080fd5b506004361061004c5760003560e01c806326997e2c14610051578063677ff7201461006f578063d8d79700146100bd578063e1152343146100c7575b600080fd5b610059610109565b6040518082815260200191505060405180910390f35b6100bb6004803603604081101561008557600080fd5b81019080803573ffffffffffffffffffffffffffffffffffffffff16906020019092919080359060200190929190505050610116565b005b6100c56101c1565b005b6100f3600480360360208110156100dd57600080fd5b810190808035906020019092919050505061021b565b6040518082815260200191505060405180910390f35b6000600280549050905090565b6002829080600181540180825580915050600190039060005260206000200160009091909190916101000a81548173ffffffffffffffffffffffffffffffffffffffff021916908373ffffffffffffffffffffffffffffffffffffffff16021790555080600360008473ffffffffffffffffffffffffffffffffffffffff1673ffffffffffffffffffffffffffffffffffffffff168152602001908152602001600020819055505050565b3373ffffffffffffffffffffffffffffffffffffffff1660008054906101000a900473ffffffffffffffffffffffffffffffffffffffff1673ffffffffffffffffffffffffffffffffffffffff161461021957600080fd5b565b6000806000905060028054905081101561032c576002818154811061023c57fe5b9060005260206000200160009054906101000a900473ffffffffffffffffffffffffffffffffffffffff1673ffffffffffffffffffffffffffffffffffffffff166108fc600360006002858154811061029157fe5b9060005260206000200160009054906101000a900473ffffffffffffffffffffffffffffffffffffffff1673ffffffffffffffffffffffffffffffffffffffff1673ffffffffffffffffffffffffffffffffffffffff168152602001908152602001600020549081150290604051600060405180830381858888f19350505050158015610322573d6000803e3d6000fd5b508291505061032e565b505b91905056fea26469706673582212202a0be074aa07e8588bc3945de985fe951236317a70a43e9befff2996ecbdc24064736f6c63430007060033",
					"opcodes": "PUSH1 0x80 PUSH1 0x40 MSTORE CALLER PUSH1 0x0 DUP1 PUSH2 0x100 EXP DUP2 SLOAD DUP2 PUSH20 0xFFFFFFFFFFFFFFFFFFFFFFFFFFFFFFFFFFFFFFFF MUL NOT AND SWAP1 DUP4 PUSH20 0xFFFFFFFFFFFFFFFFFFFFFFFFFFFFFFFFFFFFFFFF AND MUL OR SWAP1 SSTORE POP CALLVALUE PUSH1 0x1 DUP2 SWAP1 SSTORE POP PUSH2 0x369 DUP1 PUSH2 0x5A PUSH1 0x0 CODECOPY PUSH1 0x0 RETURN INVALID PUSH1 0x80 PUSH1 0x40 MSTORE CALLVALUE DUP1 ISZERO PUSH2 0x10 JUMPI PUSH1 0x0 DUP1 REVERT JUMPDEST POP PUSH1 0x4 CALLDATASIZE LT PUSH2 0x4C JUMPI PUSH1 0x0 CALLDATALOAD PUSH1 0xE0 SHR DUP1 PUSH4 0x26997E2C EQ PUSH2 0x51 JUMPI DUP1 PUSH4 0x677FF720 EQ PUSH2 0x6F JUMPI DUP1 PUSH4 0xD8D79700 EQ PUSH2 0xBD JUMPI DUP1 PUSH4 0xE1152343 EQ PUSH2 0xC7 JUMPI JUMPDEST PUSH1 0x0 DUP1 REVERT JUMPDEST PUSH2 0x59 PUSH2 0x109 JUMP JUMPDEST PUSH1 0x40 MLOAD DUP1 DUP3 DUP2 MSTORE PUSH1 0x20 ADD SWAP2 POP POP PUSH1 0x40 MLOAD DUP1 SWAP2 SUB SWAP1 RETURN JUMPDEST PUSH2 0xBB PUSH1 0x4 DUP1 CALLDATASIZE SUB PUSH1 0x40 DUP2 LT ISZERO PUSH2 0x85 JUMPI PUSH1 0x0 DUP1 REVERT JUMPDEST DUP2 ADD SWAP1 DUP1 DUP1 CALLDATALOAD PUSH20 0xFFFFFFFFFFFFFFFFFFFFFFFFFFFFFFFFFFFFFFFF AND SWAP1 PUSH1 0x20 ADD SWAP1 SWAP3 SWAP2 SWAP1 DUP1 CALLDATALOAD SWAP1 PUSH1 0x20 ADD SWAP1 SWAP3 SWAP2 SWAP1 POP POP POP PUSH2 0x116 JUMP JUMPDEST STOP JUMPDEST PUSH2 0xC5 PUSH2 0x1C1 JUMP JUMPDEST STOP JUMPDEST PUSH2 0xF3 PUSH1 0x4 DUP1 CALLDATASIZE SUB PUSH1 0x20 DUP2 LT ISZERO PUSH2 0xDD JUMPI PUSH1 0x0 DUP1 REVERT JUMPDEST DUP2 ADD SWAP1 DUP1 DUP1 CALLDATALOAD SWAP1 PUSH1 0x20 ADD SWAP1 SWAP3 SWAP2 SWAP1 POP POP POP PUSH2 0x21B JUMP JUMPDEST PUSH1 0x40 MLOAD DUP1 DUP3 DUP2 MSTORE PUSH1 0x20 ADD SWAP2 POP POP PUSH1 0x40 MLOAD DUP1 SWAP2 SUB SWAP1 RETURN JUMPDEST PUSH1 0x0 PUSH1 0x2 DUP1 SLOAD SWAP1 POP SWAP1 POP SWAP1 JUMP JUMPDEST PUSH1 0x2 DUP3 SWAP1 DUP1 PUSH1 0x1 DUP2 SLOAD ADD DUP1 DUP3 SSTORE DUP1 SWAP2 POP POP PUSH1 0x1 SWAP1 SUB SWAP1 PUSH1 0x0 MSTORE PUSH1 0x20 PUSH1 0x0 KECCAK256 ADD PUSH1 0x0 SWAP1 SWAP2 SWAP1 SWAP2 SWAP1 SWAP2 PUSH2 0x100 EXP DUP2 SLOAD DUP2 PUSH20 0xFFFFFFFFFFFFFFFFFFFFFFFFFFFFFFFFFFFFFFFF MUL NOT AND SWAP1 DUP4 PUSH20 0xFFFFFFFFFFFFFFFFFFFFFFFFFFFFFFFFFFFFFFFF AND MUL OR SWAP1 SSTORE POP DUP1 PUSH1 0x3 PUSH1 0x0 DUP5 PUSH20 0xFFFFFFFFFFFFFFFFFFFFFFFFFFFFFFFFFFFFFFFF AND PUSH20 0xFFFFFFFFFFFFFFFFFFFFFFFFFFFFFFFFFFFFFFFF AND DUP2 MSTORE PUSH1 0x20 ADD SWAP1 DUP2 MSTORE PUSH1 0x20 ADD PUSH1 0x0 KECCAK256 DUP2 SWAP1 SSTORE POP POP POP JUMP JUMPDEST CALLER PUSH20 0xFFFFFFFFFFFFFFFFFFFFFFFFFFFFFFFFFFFFFFFF AND PUSH1 0x0 DUP1 SLOAD SWAP1 PUSH2 0x100 EXP SWAP1 DIV PUSH20 0xFFFFFFFFFFFFFFFFFFFFFFFFFFFFFFFFFFFFFFFF AND PUSH20 0xFFFFFFFFFFFFFFFFFFFFFFFFFFFFFFFFFFFFFFFF AND EQ PUSH2 0x219 JUMPI PUSH1 0x0 DUP1 REVERT JUMPDEST JUMP JUMPDEST PUSH1 0x0 DUP1 PUSH1 0x0 SWAP1 POP PUSH1 0x2 DUP1 SLOAD SWAP1 POP DUP2 LT ISZERO PUSH2 0x32C JUMPI PUSH1 0x2 DUP2 DUP2 SLOAD DUP2 LT PUSH2 0x23C JUMPI INVALID JUMPDEST SWAP1 PUSH1 0x0 MSTORE PUSH1 0x20 PUSH1 0x0 KECCAK256 ADD PUSH1 0x0 SWAP1 SLOAD SWAP1 PUSH2 0x100 EXP SWAP1 DIV PUSH20 0xFFFFFFFFFFFFFFFFFFFFFFFFFFFFFFFFFFFFFFFF AND PUSH20 0xFFFFFFFFFFFFFFFFFFFFFFFFFFFFFFFFFFFFFFFF AND PUSH2 0x8FC PUSH1 0x3 PUSH1 0x0 PUSH1 0x2 DUP6 DUP2 SLOAD DUP2 LT PUSH2 0x291 JUMPI INVALID JUMPDEST SWAP1 PUSH1 0x0 MSTORE PUSH1 0x20 PUSH1 0x0 KECCAK256 ADD PUSH1 0x0 SWAP1 SLOAD SWAP1 PUSH2 0x100 EXP SWAP1 DIV PUSH20 0xFFFFFFFFFFFFFFFFFFFFFFFFFFFFFFFFFFFFFFFF AND PUSH20 0xFFFFFFFFFFFFFFFFFFFFFFFFFFFFFFFFFFFFFFFF AND PUSH20 0xFFFFFFFFFFFFFFFFFFFFFFFFFFFFFFFFFFFFFFFF AND DUP2 MSTORE PUSH1 0x20 ADD SWAP1 DUP2 MSTORE PUSH1 0x20 ADD PUSH1 0x0 KECCAK256 SLOAD SWAP1 DUP2 ISZERO MUL SWAP1 PUSH1 0x40 MLOAD PUSH1 0x0 PUSH1 0x40 MLOAD DUP1 DUP4 SUB DUP2 DUP6 DUP9 DUP9 CALL SWAP4 POP POP POP POP ISZERO DUP1 ISZERO PUSH2 0x322 JUMPI RETURNDATASIZE PUSH1 0x0 DUP1 RETURNDATACOPY RETURNDATASIZE PUSH1 0x0 REVERT JUMPDEST POP DUP3 SWAP2 POP POP PUSH2 0x32E JUMP JUMPDEST POP JUMPDEST SWAP2 SWAP1 POP JUMP INVALID LOG2 PUSH5 0x6970667358 0x22 SLT KECCAK256 0x2A SIGNEXTEND 0xE0 PUSH21 0xAA07E8588BC3945DE985FE951236317A70A43E9BEF SELFDESTRUCT 0x29 SWAP7 0xEC 0xBD 0xC2 BLOCKHASH PUSH5 0x736F6C6343 STOP SMOD MOD STOP CALLER "
				},
				"gasEstimates": {
					"creation": {
						"codeDepositCost": "174600",
						"executionCost": "41075",
						"totalCost": "215675"
					},
					"external": {
						"checkInvestors()": "999",
						"makePayment()": "1033",
						"payInvestors(address,uint256)": "62146",
						"payout(uint256)": "infinite"
					}
				},
				"methodIdentifiers": {
					"checkInvestors()": "26997e2c",
					"makePayment()": "d8d79700",
					"payInvestors(address,uint256)": "677ff720",
					"payout(uint256)": "e1152343"
				}
			},
			"storageLayout": {
				"storage": [
					{
						"astId": 3,
						"contract": "pay-investors-looping-assignment.sol:AddressWallets",
						"label": "owner",
						"offset": 0,
						"slot": "0",
						"type": "t_address"
					},
					{
						"astId": 5,
						"contract": "pay-investors-looping-assignment.sol:AddressWallets",
						"label": "funds",
						"offset": 0,
						"slot": "1",
						"type": "t_uint256"
					},
					{
						"astId": 33,
						"contract": "pay-investors-looping-assignment.sol:AddressWallets",
						"label": "investorWallets",
						"offset": 0,
						"slot": "2",
						"type": "t_array(t_address_payable)dyn_storage"
					},
					{
						"astId": 37,
						"contract": "pay-investors-looping-assignment.sol:AddressWallets",
						"label": "investors",
						"offset": 0,
						"slot": "3",
						"type": "t_mapping(t_address,t_uint256)"
					}
				],
				"types": {
					"t_address": {
						"encoding": "inplace",
						"label": "address",
						"numberOfBytes": "20"
					},
					"t_address_payable": {
						"encoding": "inplace",
						"label": "address payable",
						"numberOfBytes": "20"
					},
					"t_array(t_address_payable)dyn_storage": {
						"base": "t_address_payable",
						"encoding": "dynamic_array",
						"label": "address payable[]",
						"numberOfBytes": "32"
					},
					"t_mapping(t_address,t_uint256)": {
						"encoding": "mapping",
						"key": "t_address",
						"label": "mapping(address => uint256)",
						"numberOfBytes": "32",
						"value": "t_uint256"
					},
					"t_uint256": {
						"encoding": "inplace",
						"label": "uint256",
						"numberOfBytes": "32"
					}
				}
			},
			"userdoc": {
				"kind": "user",
				"methods": {},
				"version": 1
			}
		}
	}
}