{
	"Transfer.sol": {
		"DuitNow": {
			"abi": [
				{
					"constant": false,
					"inputs": [],
					"name": "duitnow",
					"outputs": [],
					"payable": true,
					"stateMutability": "payable",
					"type": "function"
				},
				{
					"inputs": [],
					"payable": true,
					"stateMutability": "payable",
					"type": "constructor"
				}
			],
			"devdoc": {
				"methods": {}
			},
			"evm": {
				"assembly": "    /* \"Transfer.sol\":25:406  contract DuitNow {... */\n  mstore(0x40, 0x80)\n    /* \"Transfer.sol\":169:179  msg.sender */\n  caller\n    /* \"Transfer.sol\":161:166  owner */\n  0x00\n  dup1\n    /* \"Transfer.sol\":161:179  owner = msg.sender */\n  0x0100\n  exp\n  dup2\n  sload\n  dup2\n  0xffffffffffffffffffffffffffffffffffffffff\n  mul\n  not\n  and\n  swap1\n  dup4\n  0xffffffffffffffffffffffffffffffffffffffff\n  and\n  mul\n  or\n  swap1\n  sstore\n  pop\n    /* \"Transfer.sol\":25:406  contract DuitNow {... */\n  dataSize(sub_0)\n  dup1\n  dataOffset(sub_0)\n  0x00\n  codecopy\n  0x00\n  return\nstop\n\nsub_0: assembly {\n        /* \"Transfer.sol\":25:406  contract DuitNow {... */\n      mstore(0x40, 0x80)\n      jumpi(tag_1, lt(calldatasize, 0x04))\n      shr(0xe0, calldataload(0x00))\n      dup1\n      0xd2e914e2\n      eq\n      tag_2\n      jumpi\n    tag_1:\n      0x00\n      dup1\n      revert\n        /* \"Transfer.sol\":343:403  function duitnow() payable public onlyOwner {... */\n    tag_2:\n      tag_3\n      tag_4\n      jump\t// in\n    tag_3:\n      stop\n    tag_4:\n        /* \"Transfer.sol\":243:248  owner */\n      0x00\n      dup1\n      swap1\n      sload\n      swap1\n      0x0100\n      exp\n      swap1\n      div\n      0xffffffffffffffffffffffffffffffffffffffff\n      and\n        /* \"Transfer.sol\":229:248  msg.sender == owner */\n      0xffffffffffffffffffffffffffffffffffffffff\n      and\n        /* \"Transfer.sol\":229:239  msg.sender */\n      caller\n        /* \"Transfer.sol\":229:248  msg.sender == owner */\n      0xffffffffffffffffffffffffffffffffffffffff\n      and\n      eq\n        /* \"Transfer.sol\":221:249  require(msg.sender == owner) */\n      tag_6\n      jumpi\n      0x00\n      dup1\n      revert\n    tag_6:\n        /* \"Transfer.sol\":343:403  function duitnow() payable public onlyOwner {... */\n      jump\t// out\n\n    auxdata: 0xa165627a7a7230582047733b3ecfd97dd8e7b7da810a425922c4f7a8651d56175f662af3fab8994b8c0029\n}\n",
				"bytecode": {
					"linkReferences": {},
					"object": "6080604052336000806101000a81548173ffffffffffffffffffffffffffffffffffffffff021916908373ffffffffffffffffffffffffffffffffffffffff16021790555060af806100526000396000f3fe608060405260043610601c5760003560e01c8063d2e914e2146021575b600080fd5b60276029565b005b6000809054906101000a900473ffffffffffffffffffffffffffffffffffffffff1673ffffffffffffffffffffffffffffffffffffffff163373ffffffffffffffffffffffffffffffffffffffff1614608157600080fd5b56fea165627a7a7230582047733b3ecfd97dd8e7b7da810a425922c4f7a8651d56175f662af3fab8994b8c0029",
					"opcodes": "PUSH1 0x80 PUSH1 0x40 MSTORE CALLER PUSH1 0x0 DUP1 PUSH2 0x100 EXP DUP2 SLOAD DUP2 PUSH20 0xFFFFFFFFFFFFFFFFFFFFFFFFFFFFFFFFFFFFFFFF MUL NOT AND SWAP1 DUP4 PUSH20 0xFFFFFFFFFFFFFFFFFFFFFFFFFFFFFFFFFFFFFFFF AND MUL OR SWAP1 SSTORE POP PUSH1 0xAF DUP1 PUSH2 0x52 PUSH1 0x0 CODECOPY PUSH1 0x0 RETURN INVALID PUSH1 0x80 PUSH1 0x40 MSTORE PUSH1 0x4 CALLDATASIZE LT PUSH1 0x1C JUMPI PUSH1 0x0 CALLDATALOAD PUSH1 0xE0 SHR DUP1 PUSH4 0xD2E914E2 EQ PUSH1 0x21 JUMPI JUMPDEST PUSH1 0x0 DUP1 REVERT JUMPDEST PUSH1 0x27 PUSH1 0x29 JUMP JUMPDEST STOP JUMPDEST PUSH1 0x0 DUP1 SWAP1 SLOAD SWAP1 PUSH2 0x100 EXP SWAP1 DIV PUSH20 0xFFFFFFFFFFFFFFFFFFFFFFFFFFFFFFFFFFFFFFFF AND PUSH20 0xFFFFFFFFFFFFFFFFFFFFFFFFFFFFFFFFFFFFFFFF AND CALLER PUSH20 0xFFFFFFFFFFFFFFFFFFFFFFFFFFFFFFFFFFFFFFFF AND EQ PUSH1 0x81 JUMPI PUSH1 0x0 DUP1 REVERT JUMPDEST JUMP INVALID LOG1 PUSH6 0x627A7A723058 KECCAK256 0x47 PUSH20 0x3B3ECFD97DD8E7B7DA810A425922C4F7A8651D56 OR 0x5f PUSH7 0x2AF3FAB8994B8C STOP 0x29 "
				},
				"gasEstimates": {
					"creation": {
						"codeDepositCost": "35000",
						"executionCost": "20329",
						"totalCost": "55329"
					},
					"external": {
						"duitnow()": "368"
					}
				},
				"methodIdentifiers": {
					"duitnow()": "d2e914e2"
				}
			},
			"userdoc": {
				"methods": {}
			}
		}
	}
}